{
  "contractName": "Vesting",
  "abi": [
    {
      "inputs": [
        {
          "internalType": "address",
          "name": "token_",
          "type": "address"
        },
        {
          "internalType": "uint256",
          "name": "amount_",
          "type": "uint256"
        }
      ],
      "stateMutability": "nonpayable",
      "type": "constructor"
    },
    {
      "inputs": [
        {
          "internalType": "address",
          "name": "",
          "type": "address"
        }
      ],
      "name": "listOfBeneficiaries",
      "outputs": [
        {
          "internalType": "address",
          "name": "investor",
          "type": "address"
        },
        {
          "internalType": "uint256",
          "name": "balance",
          "type": "uint256"
        },
        {
          "internalType": "enum IVesting.Allocation",
          "name": "location",
          "type": "uint8"
        }
      ],
      "stateMutability": "view",
      "type": "function"
    },
    {
      "inputs": [],
      "name": "owner",
      "outputs": [
        {
          "internalType": "address",
          "name": "",
          "type": "address"
        }
      ],
      "stateMutability": "view",
      "type": "function"
    },
    {
      "inputs": [],
      "name": "vestedAmount",
      "outputs": [
        {
          "internalType": "uint256",
          "name": "",
          "type": "uint256"
        }
      ],
      "stateMutability": "view",
      "type": "function"
    },
    {
      "inputs": [],
      "name": "vestingCliff",
      "outputs": [
        {
          "internalType": "uint256",
          "name": "",
          "type": "uint256"
        }
      ],
      "stateMutability": "view",
      "type": "function"
    },
    {
      "inputs": [],
      "name": "vestingDuration",
      "outputs": [
        {
          "internalType": "uint256",
          "name": "",
          "type": "uint256"
        }
      ],
      "stateMutability": "view",
      "type": "function"
    },
    {
      "inputs": [],
      "name": "vestingStartDate",
      "outputs": [
        {
          "internalType": "uint256",
          "name": "",
          "type": "uint256"
        }
      ],
      "stateMutability": "view",
      "type": "function"
    },
    {
      "inputs": [
        {
          "internalType": "uint256",
          "name": "initialTimestamp_",
          "type": "uint256"
        }
      ],
      "name": "setInitialTimestamp",
      "outputs": [],
      "stateMutability": "nonpayable",
      "type": "function"
    },
    {
      "inputs": [
        {
          "internalType": "address[]",
          "name": "investors_",
          "type": "address[]"
        },
        {
          "internalType": "uint256[]",
          "name": "amount_",
          "type": "uint256[]"
        },
        {
          "internalType": "enum IVesting.Allocation[]",
          "name": "allocation_",
          "type": "uint8[]"
        }
      ],
      "name": "addInvestors",
      "outputs": [],
      "stateMutability": "nonpayable",
      "type": "function"
    },
    {
      "inputs": [],
      "name": "withdrawTokens",
      "outputs": [],
      "stateMutability": "nonpayable",
      "type": "function"
    }
  ],
  "bytecode": "0x6080604052618ca06004556102586005553480156200001d57600080fd5b5060405162000f2c38038062000f2c833981810160405281019062000043919062000179565b81600660006101000a81548173ffffffffffffffffffffffffffffffffffffffff021916908373ffffffffffffffffffffffffffffffffffffffff16021790555033600260006101000a81548173ffffffffffffffffffffffffffffffffffffffff021916908373ffffffffffffffffffffffffffffffffffffffff160217905550806001819055505050620001c0565b600080fd5b600073ffffffffffffffffffffffffffffffffffffffff82169050919050565b60006200010682620000d9565b9050919050565b6200011881620000f9565b81146200012457600080fd5b50565b60008151905062000138816200010d565b92915050565b6000819050919050565b62000153816200013e565b81146200015f57600080fd5b50565b600081519050620001738162000148565b92915050565b60008060408385031215620001935762000192620000d4565b5b6000620001a38582860162000127565b9250506020620001b68582860162000162565b9150509250929050565b610d5c80620001d06000396000f3fe608060405234801561001057600080fd5b50600436106100935760003560e01c80638d8f2adb116100665780638d8f2adb1461010e5780638da5cb5b14610118578063bba5545314610136578063f3640e7414610152578063f6d41efa1461017057610093565b80631514617e1461009857806321f926db146100b657806344b1231f146100d2578063579acacc146100f0575b600080fd5b6100a06101a2565b6040516100ad91906107a4565b60405180910390f35b6100d060048036038101906100cb91906107f5565b6101a8565b005b6100da61023e565b6040516100e791906107a4565b60405180910390f35b6100f8610244565b60405161010591906107a4565b60405180910390f35b61011661024a565b005b610120610441565b60405161012d9190610863565b60405180910390f35b610150600480360381019061014b919061098f565b610467565b005b61015a61072e565b60405161016791906107a4565b60405180910390f35b61018a60048036038101906101859190610a6f565b610734565b60405161019993929190610b13565b60405180910390f35b60045481565b3373ffffffffffffffffffffffffffffffffffffffff16600260009054906101000a900473ffffffffffffffffffffffffffffffffffffffff1673ffffffffffffffffffffffffffffffffffffffff161461020257600080fd5b60016007541461021157600080fd5b6007600081548092919061022490610b79565b919050555080426102359190610bc1565b60038190555050565b60015481565b60035481565b3373ffffffffffffffffffffffffffffffffffffffff16600260009054906101000a900473ffffffffffffffffffffffffffffffffffffffff1673ffffffffffffffffffffffffffffffffffffffff16146102a457600080fd5b6001600754146102b357600080fd5b6000600354116102c257600080fd5b60008060003373ffffffffffffffffffffffffffffffffffffffff1673ffffffffffffffffffffffffffffffffffffffff168152602001908152602001600020600101541161031057600080fd5b60008060003373ffffffffffffffffffffffffffffffffffffffff1673ffffffffffffffffffffffffffffffffffffffff16815260200190815260200160002060010154905060008060003373ffffffffffffffffffffffffffffffffffffffff1673ffffffffffffffffffffffffffffffffffffffff16815260200190815260200160002060010181905550600660009054906101000a900473ffffffffffffffffffffffffffffffffffffffff1673ffffffffffffffffffffffffffffffffffffffff1663a9059cbb33836040518363ffffffff1660e01b81526004016103fa929190610c17565b6020604051808303816000875af1158015610419573d6000803e3d6000fd5b505050506040513d601f19601f8201168201806040525081019061043d9190610c78565b5050565b600260009054906101000a900473ffffffffffffffffffffffffffffffffffffffff1681565b3373ffffffffffffffffffffffffffffffffffffffff16600260009054906101000a900473ffffffffffffffffffffffffffffffffffffffff1673ffffffffffffffffffffffffffffffffffffffff16146104c157600080fd5b6001600754146104d057600080fd5b6000805b87879050811015610724578787828181106104f2576104f1610ca5565b5b90506020020160208101906105079190610a6f565b6000808a8a8581811061051d5761051c610ca5565b5b90506020020160208101906105329190610a6f565b73ffffffffffffffffffffffffffffffffffffffff1673ffffffffffffffffffffffffffffffffffffffff16815260200190815260200160002060000160006101000a81548173ffffffffffffffffffffffffffffffffffffffff021916908373ffffffffffffffffffffffffffffffffffffffff1602179055508383828181106105c0576105bf610ca5565b5b90506020020160208101906105d59190610cf9565b6000808a8a858181106105eb576105ea610ca5565b5b90506020020160208101906106009190610a6f565b73ffffffffffffffffffffffffffffffffffffffff1673ffffffffffffffffffffffffffffffffffffffff16815260200190815260200160002060020160006101000a81548160ff0219169083600181111561065f5761065e610a9c565b5b021790555085858281811061067757610676610ca5565b5b905060200201356000808a8a8581811061069457610693610ca5565b5b90506020020160208101906106a99190610a6f565b73ffffffffffffffffffffffffffffffffffffffff1673ffffffffffffffffffffffffffffffffffffffff168152602001908152602001600020600101819055508585828181106106fd576106fc610ca5565b5b905060200201358261070f9190610bc1565b9150808061071c90610b79565b9150506104d4565b5050505050505050565b60055481565b60006020528060005260406000206000915090508060000160009054906101000a900473ffffffffffffffffffffffffffffffffffffffff16908060010154908060020160009054906101000a900460ff16905083565b6000819050919050565b61079e8161078b565b82525050565b60006020820190506107b96000830184610795565b92915050565b600080fd5b600080fd5b6107d28161078b565b81146107dd57600080fd5b50565b6000813590506107ef816107c9565b92915050565b60006020828403121561080b5761080a6107bf565b5b6000610819848285016107e0565b91505092915050565b600073ffffffffffffffffffffffffffffffffffffffff82169050919050565b600061084d82610822565b9050919050565b61085d81610842565b82525050565b60006020820190506108786000830184610854565b92915050565b600080fd5b600080fd5b600080fd5b60008083601f8401126108a3576108a261087e565b5b8235905067ffffffffffffffff8111156108c0576108bf610883565b5b6020830191508360208202830111156108dc576108db610888565b5b9250929050565b60008083601f8401126108f9576108f861087e565b5b8235905067ffffffffffffffff81111561091657610915610883565b5b60208301915083602082028301111561093257610931610888565b5b9250929050565b60008083601f84011261094f5761094e61087e565b5b8235905067ffffffffffffffff81111561096c5761096b610883565b5b60208301915083602082028301111561098857610987610888565b5b9250929050565b600080600080600080606087890312156109ac576109ab6107bf565b5b600087013567ffffffffffffffff8111156109ca576109c96107c4565b5b6109d689828a0161088d565b9650965050602087013567ffffffffffffffff8111156109f9576109f86107c4565b5b610a0589828a016108e3565b9450945050604087013567ffffffffffffffff811115610a2857610a276107c4565b5b610a3489828a01610939565b92509250509295509295509295565b610a4c81610842565b8114610a5757600080fd5b50565b600081359050610a6981610a43565b92915050565b600060208284031215610a8557610a846107bf565b5b6000610a9384828501610a5a565b91505092915050565b7f4e487b7100000000000000000000000000000000000000000000000000000000600052602160045260246000fd5b60028110610adc57610adb610a9c565b5b50565b6000819050610aed82610acb565b919050565b6000610afd82610adf565b9050919050565b610b0d81610af2565b82525050565b6000606082019050610b286000830186610854565b610b356020830185610795565b610b426040830184610b04565b949350505050565b7f4e487b7100000000000000000000000000000000000000000000000000000000600052601160045260246000fd5b6000610b848261078b565b91507fffffffffffffffffffffffffffffffffffffffffffffffffffffffffffffffff8203610bb657610bb5610b4a565b5b600182019050919050565b6000610bcc8261078b565b9150610bd78361078b565b9250827fffffffffffffffffffffffffffffffffffffffffffffffffffffffffffffffff03821115610c0c57610c0b610b4a565b5b828201905092915050565b6000604082019050610c2c6000830185610854565b610c396020830184610795565b9392505050565b60008115159050919050565b610c5581610c40565b8114610c6057600080fd5b50565b600081519050610c7281610c4c565b92915050565b600060208284031215610c8e57610c8d6107bf565b5b6000610c9c84828501610c63565b91505092915050565b7f4e487b7100000000000000000000000000000000000000000000000000000000600052603260045260246000fd5b60028110610ce157600080fd5b50565b600081359050610cf381610cd4565b92915050565b600060208284031215610d0f57610d0e6107bf565b5b6000610d1d84828501610ce4565b9150509291505056fea26469706673582212208e10396d1a55aa372eebff35e396605de50bee12e1eb87ee1e38a1976b5d761f64736f6c634300080e0033",
  "immutableReferences": {},
  "source": "// SPDX-License-Identifier: MIT\n\npragma solidity 0.8.14;\n\nimport \"@openzeppelin/contracts/token/ERC20/IERC20.sol\";    \nimport \"../interfaces/IVesting.sol\";\n\ncontract Vesting is IVesting {\n\n    struct Beneficiary {\n        address investor;\n        uint256 balance;\n        IVesting.Allocation location;\n    }\n\n    mapping(address => Beneficiary) public listOfBeneficiaries;\n    uint256 public vestedAmount;\n    address public owner;\n    uint256 public vestingStartDate;\n    uint256 public vestingDuration = 600 minutes;\n    uint256 public vestingCliff = 10 minutes;\n\n    IERC20 private _token;\n    uint256 nonce;\n\n\n    constructor(address token_ , uint256 amount_){\n        _token = IERC20(token_);\n        owner = msg.sender;\n        vestedAmount = amount_;\n    }\n\n    modifier onlyOwner {\n        require(owner == msg.sender);\n        _;\n    }\n\n    modifier onlyOnce {\n        require(nonce == 1);\n        _;\n    }\n\n    function setInitialTimestamp (uint256 initialTimestamp_) external override onlyOwner onlyOnce{\n        nonce++;\n        vestingStartDate = block.timestamp + initialTimestamp_;\n    }\n\n    function addInvestors (address[]calldata investors_,\n    uint256[] calldata amount_,\n    IVesting.Allocation [] calldata allocation_) \n    external override onlyOwner onlyOnce{\n        uint256 sumOfAmount;\n        for(uint i;i<investors_.length;i++){\n            listOfBeneficiaries[investors_[i]].investor = investors_[i];\n            listOfBeneficiaries[investors_[i]].location = allocation_[i];\n            listOfBeneficiaries[investors_[i]].balance = amount_[i];\n            sumOfAmount += amount_[i];\n        }\n        // _token._mintForVesting(address(this),sumOfAmount);\n    }\n\n    function withdrawTokens () external override onlyOwner onlyOnce{\n        require(vestingStartDate > 0);\n        require(listOfBeneficiaries[msg.sender].balance > 0);\n        uint256 amount = listOfBeneficiaries[msg.sender].balance;\n        listOfBeneficiaries[msg.sender].balance = 0;\n        _token.transfer(msg.sender , amount);\n    }\n\n}\n",
  "sourcePath": "/Users/pavel/ThirdTaskZanozin/contracts/Vesting.sol",
  "compiler": {
    "name": "solc",
    "version": "0.8.14+commit.80d49f37.Emscripten.clang"
  },
  "schemaVersion": "3.4.7",
  "updatedAt": "2022-06-23T15:19:17.709Z",
  "devdoc": {
    "kind": "dev",
    "methods": {},
    "version": 1
  },
  "userdoc": {
    "kind": "user",
    "methods": {},
    "version": 1
  }
}